:020000040800F2
:1000000000000220055F0008555F0008555F0008EA
:10001000555F0008555F0008555F000800000000AC
:10002000000000000000000000000000555F000814
:10003000555F000800000000555F0008DF09000858
:10004000555F0008555F0008555F0008555F0008C0
:10005000555F0008555F0008555F0008555F0008B0
:10006000555F0008555F0008555F0008555F0008A0
:10007000555F0008555F0008555F0008555F000890
:10008000555F0008555F0008555F0008000000003C
:10009000000000000000000000000000555F0008A4
:1000A000555F0008555F0008555F0008555F000860
:1000B000555F0008555F0008555F0008555F000850
:1000C000555F0008555F0008555F0008555F000840
:1000D000555F0008555F0008555F000800000000EC
:1000E000555F0008555F0008555F000800000000DC
:1000F000000000000000000000000000555F000844
:1001000000000000555F0008555F0008555F0008BB
:1001100000000000000000000000000000000000DF
:10012000555F0008555F0008555F0008555F0008DF
:10013000555F000800000000000000000000000003
:10014000000000000000000000000000ED090008B1
:10015000555F0008555F0008555F0008555F0008AF
:10016000555F0008555F0008000000000000000017
:10017000000000000000000000000000000000007F
:1001800000000000555F00080000000000000000B3
:08019000555F0008555F0008EF
:1001C0000348044B834202D0034B03B118477047E6
:1001D0002C0000202C000020000000000548064BE9
:1001E0001B1AD90F01EBA301491002D0034B03B135
:1001F000184770472C0000202C0000200000000051
:1002000010B5064C237843B9FFF7DAFF044B13B15E
:100210000448AFF300800123237010BD2C000020A0
:1002200000000000585F000808B5044B1BB10449EA
:100230000448AFF30080BDE80840CFE700000000AD
:1002400030000020585F000870B50F4B0F4DAB42D7
:10025000A3EB050607D0B610002455F8043B013483
:100260009847A642F9D805F077FE094D094B5E1B69
:10027000AB424FEAA60606D0002455F8043B0134F1
:100280009847A642F9D870BD606000086060000819
:100290006060000864600008844641EA000313F0CF
:1002A00003036DD1403A41D351F8043B40F8043B7D
:1002B00051F8043B40F8043B51F8043B40F8043B40
:1002C00051F8043B40F8043B51F8043B40F8043B30
:1002D00051F8043B40F8043B51F8043B40F8043B20
:1002E00051F8043B40F8043B51F8043B40F8043B10
:1002F00051F8043B40F8043B51F8043B40F8043B00
:1003000051F8043B40F8043B51F8043B40F8043BEF
:1003100051F8043B40F8043B51F8043B40F8043BDF
:1003200051F8043B40F8043B403ABDD2303211D37F
:1003300051F8043B40F8043B51F8043B40F8043BBF
:1003400051F8043B40F8043B51F8043B40F8043BAF
:10035000103AEDD20C3205D351F8043B40F8043B7F
:10036000043AF9D2043208D0D2071CBF11F8013B7D
:1003700000F8013B01D30B8803806046704700BF43
:10038000082A13D38B078DD010F003038AD0C3F152
:100390000403D21ADB071CBF11F8013B00F8013B34
:1003A00080D331F8023B20F8023B7BE7043AD9D3F3
:1003B000013A11F8013B00F8013BF9D20B780370C8
:1003C0004B7843708B78837060467047830730B5F5
:1003D00047D0541E002A3ED0CAB2034601E0013C79
:1003E00039D303F8012B9D07F9D1032C2CD9CDB2B9
:1003F00005EB05250F2C05EB054535D9A4F11002B9
:1004000022F00F0C03F1100EE6444FEA121C1A46BC
:10041000156055609560D56010327245F8D10CF1C9
:10042000010214F00C0F03EB021204F00F0C13D0B6
:10043000ACF1040323F003030433134442F8045BD8
:100440009A42FBD10CF003042CB1C9B21C4403F84E
:10045000011B9C42FBD130BD64461346002CF4D1F5
:10046000F9E703461446C0E71A46A446E0E700BF92
:10047000000000000000000000000000000000007C
:1004800090F800F06DE9024520F007016FF0000CD4
:1004900010F0070491F820F040F049804FF000047C
:1004A0006FF00700D1E9002391F840F000F1080057
:1004B00082FA4CF2A4FA8CF283FA4CF3A2FA8CF38F
:1004C0004BBBD1E9022382FA4CF200F10800A4FAF6
:1004D0008CF283FA4CF3A2FA8CF3E3B9D1E904234A
:1004E00082FA4CF200F10800A4FA8CF283FA4CF381
:1004F000A2FA8CF37BB9D1E9062301F1200182FA3B
:100500004CF200F10800A4FA8CF283FA4CF3A2FA40
:100510008CF3002BC6D0002A04BF04301A4612BA4E
:10052000B2FA82F2FDE8024500EBD2007047D1E951
:10053000002304F00305C4F100004FEAC50514F0E0
:10054000040F91F840F00CFA05F562EA05021CBFB1
:1005500063EA050362464FF00004A9E753B94AB9BC
:10056000002908BF00281CBF4FF0FF314FF0FF30BB
:1005700000F06AB9ADF1080C6DE904CE00F006F8A0
:10058000DDF804E0DDE9022304B070472DE9F0470F
:10059000089D0C46002B4ED194468C458646B2FAF7
:1005A00082F262D94AB1C2F12003914020FA03F3EA
:1005B0000CFA02FC194300FA02FE4FEA1C471FFA2C
:1005C0008CF6B1FBF7F44FEA1E4307FB141143EA24
:1005D000014304FB06F199420AD91CEB030304F121
:1005E000FF3080F01381994240F21081023C634455
:1005F000591A1FFA8EF3B1FBF7F007FB101143EA0B
:10060000014300FB06F69E420AD91CEB030300F1EE
:10061000FF3180F0FD809E4240F2FA806344023850
:100620009B1B40EA044000211DB1D3400022C5E9D4
:100630000032BDE8F0878B4205D90DB1C5E9000154
:1006400000210846F5E7B3FA83F1002946D1A34219
:1006500002D39042C0F0F180861A64EB03030120BC
:10066000002DE6D0C5E90063E3E7002A40F0918061
:10067000A1EB0C044FEA1C481FFA8CF70121B4FBD4
:10068000F8F64FEA1E4308FB164443EA044307FB0F
:1006900006F0984208D91CEB030306F1FF3402D29E
:1006A000984200F2CE8026461C1A1FFA8EF3B4FB45
:1006B000F8F008FB104443EA044300FB07F79F42AD
:1006C00008D91CEB030300F1FF3402D29F4200F271
:1006D000B1802046DB1B40EA0640A5E7C1F12006B9
:1006E0008B4022FA06F71F4320FA06FC04FA01F3B6
:1006F00043EA0C03F44000FA01F8380C4FEA1349BE
:10070000B4FBF0FE1FFA87FC00FB1E4449EA0444D8
:100710000EFB0CF9A14502FA01F20AD93C190EF1BF
:10072000FF3A80F08580A14540F28280AEF1020E52
:100730003C44A4EB09041FFA83F9B4FBF0F300FB7B
:10074000134449EA044403FB0CFCA44507D93C19B3
:1007500003F1FF3068D2A44566D9023B3C4443EA2A
:100760000E40A0FB0293A4EB0C049C42CE469C4698
:1007700052D34FD055B1B8EB0E0364EB0C0404FA1E
:1007800006F6CB40CC401E43C5E900640021BDE81D
:10079000F087C2F1200320FA03F10CFA02FC24FADC
:1007A00003F394400C434FEA1C4800FA02FE1FFA80
:1007B0008CF7B3FBF8F008FB1031230C43EA01433C
:1007C00000FB07F1994208D91CEB030300F1FF3647
:1007D0002CD299422AD9023863445B1AA4B2B3FBE3
:1007E000F8F108FB113344EA034401FB07F3A34289
:1007F00008D91CEB040401F1FF3613D2A34211D92E
:1008000002396444E41A41EA004138E70446EFE65D
:10081000084605E7C845ADD2B9EB020E63EB070CFD
:100820000138A7E73146EDE7034698E73046D4E7BD
:10083000D6467EE7634402384CE706462346084620
:100840000EE7023E63442FE7704700BF80B483B0D9
:1008500000AF0346FB7197F90730002B0BDBFB79E8
:1008600003F01F02074997F907305B09012000FADE
:1008700002F241F8232000BF0C37BD465DF8047B2F
:10088000704700BF00E100E080B483B000AF0346D2
:100890003960FB7197F90730002B0ADB3B68DAB24D
:1008A0000C4997F907301201D2B20B4483F80023A8
:1008B0000AE03B68DAB20849FB7903F00F03043B16
:1008C0001201D2B20B441A7600BF0C37BD465DF858
:1008D000047B704700E100E000ED00E080B500AF70
:1008E000234B1B6B224A43F001031363214B1B680C
:1008F00023F070731F4A43F0207313601D4B9B68F5
:100900001C4A43F0707393601A4BDB68194A23F05A
:100910007073D360174B5B68164A23F4C05353605F
:10092000144B5B6A23F47F23124A43F42A23536255
:100930000F4B5B6B0E4A43F0800353634FF0A043B1
:100940009B6B4FF0A04243F4001393634FF0A0431E
:100950009B6B4FF0A04223F440239363002143207C
:10096000FFF792FF4320FFF771FF00BF80BD00BF7C
:10097000003802400000024080B596B000AF00F0A1
:10098000B9F9FFF7ABFF00F095FA00214FF0FF3007
:1009900001F090FB00BF002003F0C6F80346002BD7
:1009A000F3D03B1DBB6440237B647A6CB96C0020A0
:1009B00003F0D2F803467B653B1D3B657B6DFB6412
:1009C000FA6C396D002003F0F3F8002003F026F9EB
:1009D000DBE780B400AF72B600BF00BFFDE780B4B4
:1009E00000AF00BFBD465DF8047B704780B500AF27
:1009F000002005F035F900BF80BD000080B400AFD5
:100A0000024B1846BD465DF8047B7047B45F000892
:100A100080B483B000AF0346FB71034B18460C371C
:100A2000BD465DF8047B7047C85F000880B586B09E
:100A300000AF03460A46FB711346BB80FB79002BCF
:100A400008D1214B1B681B889AB2204B5A80012386
:100A50007B6129E0FB79042B01D9002330E0FB798D
:100A6000194A52F82330FB60F868FFF709FD7861F6
:100A70001F23BB607A69BB689A4201D9BB687B615E
:100A800000233B610CE0FA683B6913441A783B6928
:100A9000013311460D4A22F813103B6901333B61C3
:100AA0003A697B699A42EED37B699BB201339BB270
:100AB0005B009BB243F440739AB2044B1A80034B21
:100AC00018461837BD4680BD0000002048000020B1
:100AD00080B483B000AF03463960FB7197F90730EB
:100AE000002B0ADB3B68DAB20C4997F90730120198
:100AF000D2B20B4483F800230AE03B68DAB208491B
:100B0000FB7903F00F03043B1201D2B20B441A76B7
:100B100000BF0C37BD465DF8047B704700E100E084
:100B200000ED00E080B582B000AF78607B68013BEB
:100B3000B3F1807F01D301230FE00A4A7B68013BB8
:100B400053600F214FF0FF30FFF7C2FF054B00222B
:100B50009A60044B07221A60002318460837BD46E6
:100B600080BD00BF10E000E02DE9B04F90B000AFB5
:100B700000237B630023FB6300233B630023BB63F1
:100B8000594B9B6803F00C03082B0DD0082B00F287
:100B9000A180002B02D0042B03D09BE0534BBB63FE
:100BA0009BE0534BBB6398E04F4B5B6803F03F0304
:100BB0007B634D4B5B6803F48003002B28D04A4BCA
:100BC0005B689B0900223B627A623B6AC3F30800C0
:100BD0000021474B03FB01F2002300FB03F3134406
:100BE000434AA0FB0212FA620A46BA62FA6A134446
:100BF000FB627B6B0022BB61FA61D7E90623D7E970
:100C00000A01FFF7ABFC02460B461346FB6353E0B9
:100C1000354B5B689B0900223B617A613B69C3F3FA
:100C2000080A4FF0000B52465B464FF000004FF0B1
:100C30000001590141EAD261500102460B46B2EB74
:100C40000A0863EB0B094FF000024FF000034FEA74
:100C5000891343EA98634FEA8812B2EB080463EB06
:100C600009054FF000024FF00003EB0043EA547314
:100C7000E20014461D4614EB0A033B6045EB0B03F0
:100C80007B604FF000024FF00003D7E90045294692
:100C90008B02214643EA915321468A0210461946A7
:100CA0007B6B0022BB60FA60D7E90223FFF756FC9A
:100CB00002460B461346FB630B4B5B681B0C03F0B1
:100CC000030301335B003B63FA6B3B6BB2FBF3F353
:100CD000BB6302E0054BBB6300BFBB6B18464037EC
:100CE000BD46BDE8B08F00BF003802400024F400CC
:100CF00040787D0180B586B000AF00233B601923AA
:100D00003B61C023FB600223BB6004237B60584B24
:100D10001B6C574A43F080531364554B1B6C03F014
:100D200080533B603B68534B1B68524A43F440433B
:100D30001360504B1B6803F440433B603B684E4BD1
:100D40001B684D4A43F4E0631360494B1B68484AF3
:100D500043F480331360494B7B6100BF444B1B68F5
:100D600003F40033002B05D17B69013B7B617B6978
:100D7000002BF3D17B69002B01D1FFF72AFE404BFA
:100D800000221A6000BF3A4B1B6803F00073002B6F
:100D9000F9D1FB689A013B691A43BB685B08013BC8
:100DA0001B041A437B681B061343314A43F4800338
:100DB0005360334B01221A6000BF2D4B1B6803F0B8
:100DC0000073002BF9D02A4B9B68294A43F4E05367
:100DD0009360274B9B68264A43F460439360244BFF
:100DE0009B68234A23F0F0039360214B9B6823F018
:100DF00003031F4A43F00103936000BF1C4B9B6831
:100E000003F00C03042BF9D11B4B1B68002B01D002
:100E1000012300E00023002B02D0174B00221A70A0
:100E2000134B9B68124A23F4E0539360104B9B686A
:100E30000F4A03F460439360FFF796FE02460C4BA3
:100E40009B681B0903F00F030E49CB5C22FA03F3E6
:100E50000D4A13600C4B1B680C4AA2FB03239B0931
:100E60001846FFF75FFE00BF1837BD4680BD00BFC4
:100E70000038024000700040003C024040420F0039
:100E8000600047421860000814000020D34D621033
:100E900080B400AF064BD3F88830054A43F47003A2
:100EA000C2F8883000BFBD465DF8047B704700BFC4
:100EB00000ED00E080B582B000AF002000F0E8FF58
:100EC000034683F00103DBB2002B0AD0074B7B60A3
:100ED0007B681B6803F00103002B00D000BE0023D9
:100EE00000E0012318460837BD4680BDF0ED00E064
:100EF00080B485B000AF786039607B681B78C3F33D
:100F00000003DBB2002B06D17B681B78C3F38003A0
:100F1000DBB2002B01D000231EE07B681B78C3F3FB
:100F20000003DBB2002B08D17B681B78C3F380037E
:100F3000DBB2002B01D1012300E00023FB73FB7B1C
:100F400003F00103FB73FB7B002B04D07A6813785A
:100F500043F004031370FB7B18461437BD465DF85D
:100F6000047B704780B485B000AF786039607B68DF
:100F70001B78C3F38003DBB2012B08D17B681B789D
:100F8000C3F30003DBB2002B01D1012300E00023F7
:100F9000FB73FB7B03F00103FB73FB7B002B04D093
:100FA0007A6813786FF382031370FB7B184614374B
:100FB000BD465DF8047B704780B48BB000AF7860AD
:100FC0000B46FB707B68FB60FB689B889BB2C3F39E
:100FD0000A039BB2FB847B68DB78C3F30103DBB2BB
:100FE000032B3ED0032B53DC012B02D0022B18D055
:100FF0004EE0FB78022B02D14FF4806301E040F217
:10100000FF33FB82FA8CFB8A9A4243D9274B3B6120
:101010003B691B6803F00103002B00D000BE0023D6
:101020003EE0FB78022B0ED1FB8CB3F5007F33D072
:101030001E4BBB61BB691B6803F00103002B00D092
:1010400000BE00232CE0FB8C402B25D9174BFB6105
:10105000FB691B6803F00103002B00D000BE0023D6
:101060001EE0FB78022B02D14FF4806300E04023A6
:10107000BB84FA8CBB8C9A4210D90C4B3B623B6A06
:101080001B6803F00103002B00D000BE002307E023
:10109000002305E000BF02E000BF00E000BF012325
:1010A00018462C37BD465DF8047B7047F0ED00E034
:1010B00080B48DB000AFF860B96011461A460B4697
:1010C000FB8013467B71BB68FB62FB88FA6A1344A2
:1010D000BB6227E0FB6A3B623B6A01331B78052B4E
:1010E00016D1FB6A9B7887F8273097F82730BB77B3
:1010F000BB7F03F07F03DBB25B00FA68134497F811
:101100002720FA77FA7FD209D2B211467A795A5457
:10111000FB6ABB61BB697B617B691B781A467B6993
:101120001344FB62FA6ABB6A9A42D3D300BF00BF82
:101130003437BD465DF8047B704780B485B000AF9E
:10114000F860B96011461A460B46FB801346BB8017
:10115000FB88B3F5004F01D900231BE0FB68BA6898
:101160001A60FB68FA889A80BB88C3F30E0399B2B1
:10117000FA68D38861F30E03D380FA68D379397E95
:1011800061F3C713D371FB6800225A81FB68002208
:101190001A81012318461437BD465DF8047B704759
:1011A00080B58AB000AFF860B9601346FB80BB68B9
:1011B0003B62FB889B08FB840BE03B6A1B68FA6878
:1011C000BA617B61BB697A691A6000BFFB6804334E
:1011D000FB60FB8C5A1EFA84002BEED1FB88DBB23D
:1011E00003F00303FB77FB7F002B09D03B6A1B68EE
:1011F0003B61FA7F07F110031946F868FFF74CF8D6
:1012000000BF2837BD4680BD80B58AB000AFF8600A
:10121000B9601346FB80FB683B62FB889B08FB843C
:1012200008E0BB68BB61BB691A683B6A1A60BB68AF
:101230000433BB60FB8C5A1EFA84002BF1D1FB886F
:10124000DBB203F00303FB77FB7F002B0BD0002303
:101250007B61FA7F07F11403B9681846FFF71CF8A1
:101260007A693B6A1A6000BF2837BD4680BD80B5E9
:1012700084B000AFF860B9601346FB80FB681B6860
:10128000FA88F968C988C1F30E0189B201FB02F23C
:101290009818FB68DB88C3F30E039BB21A46B96843
:1012A000FEF7FAFF00BF1037BD4680BD80B58EB097
:1012B00000AFF860B96011461A460B46FB80134632
:1012C000BB80FB689A88BB88D31AFB84FA88FB8CA6
:1012D000D31ABB84FB68DB88C3F30E039BB21A46A8
:1012E000FB8C13FB02F37B84FB68DB88C3F30E03E8
:1012F0009BB21A46BB8C13FB02F3FB86FB681B6890
:10130000BA88F968C988C1F30E0189B201FB02F2FB
:1013100013443B6397F84030002B02D0012B22D0BE
:101320009EE0FA88FB8C9A420DD8FB88FA68D28836
:10133000C2F30E0292B202FB03F31A46B968386B8D
:10134000FEF7AAFF8CE07B8C1A46B968386BFEF773
:10135000A3FFFB6818687B8CBA681344FA8E1946A1
:10136000FEF79AFF7CE0FA88FB8C9A420FD8FB6864
:10137000DB88C3F30E039BB21A46FB8813FB02F310
:101380009BB21A46B968386BFFF70AFF67E07B8C9F
:1013900023F003033B843B8C1A46B968386BFFF794
:1013A000FFFE3B8C3A6B13443B637B8CDBB203F058
:1013B000030387F82F3097F82F30002B43D0BB68FA
:1013C000FB6197F82F309BB2C3F104039AB2FB8EF6
:1013D0007B8313463B837A8B3B8B934228BF134618
:1013E0009BB287F82E3097F82E309BB2FA8ED31A24
:1013F000FB86FB691B687B6107F11403BB6207E096
:10140000BA6A531CBB623B6B591C396312781A7061
:1014100097F82F305A1E87F82F20002BF0D1FB6849
:101420001B683B6307E0BA6A531CBB623B6B591CE9
:10143000396312781A7097F82E305A1E87F82E20CA
:10144000002BF0D102E0FB681B683B63FB8E002B96
:1014500005D0FB8E1A46B968386BFFF7A1FE00BFB6
:1014600000BF3837BD4680BD80B584B000AFF8609E
:10147000B9601346FB80FB681B68FA88F968C98865
:10148000C1F30E0189B201FB02F29918FB68DB88F7
:10149000C3F30E039BB21A46B868FEF7FDFE00BF09
:1014A0001037BD4680BD80B58EB000AFF860B96022
:1014B00011461A460B46FB801346BB80FB689A8890
:1014C000BB88D31AFB84FA88FB8CD31ABB84FB68D5
:1014D000DB88C3F30E039BB21A46FB8C13FB02F3AB
:1014E0007B84FB68DB88C3F30E039BB21A46BB8C7C
:1014F00013FB02F3FB86FB681B68BA88F968C9888E
:10150000C1F30E0189B201FB02F213443B6397F869
:101510004030002B02D0012B22D0A0E0FA88FB8CB7
:101520009A420DD8FB88FA68D288C2F30E0292B2B2
:1015300002FB03F31A46396BB868FEF7ADFE8EE086
:101540007B8C1A46396BB868FEF7A6FE7B8CBA68AE
:10155000D018FB681B68FA8E1946FEF79DFE7EE0E8
:10156000FA88FB8C9A420FD8FB68DB88C3F30E0322
:101570009BB21A46FB8813FB02F39BB21A46396BE7
:10158000B868FFF741FE69E07B8C23F003033B84DE
:101590003B8C1A46396BB868FFF736FE3B8C3A6BCA
:1015A00013443B637B8CDBB203F0030387F82F30DB
:1015B00097F82F30002B45D0BB68FB6197F82F3090
:1015C0009BB2C3F104039AB2FB8E7B8313463B8329
:1015D0007A8B3B8B934228BF13469BB287F82E3001
:1015E00097F82E309BB2FA8ED31AFB8600237B61CC
:1015F00007F11403BB6207E03A6B531C3B63BB6A01
:10160000591CB96212781A7097F82F305A1E87F851
:101610002F20002BF0D1FB681B683B6307E03A6B7F
:10162000531C3B63BB6A591CB96212781A7097F855
:101630002E305A1E87F82E20002BF0D17A69FB69D4
:101640001A6002E0FB681B683B63FB8E002B05D031
:10165000FB8E1A46396BB868FFF7D6FD00BF00BF96
:101660003837BD4680BD80B485B000AF0346FB80EF
:101670000B46BB8013467B80BA887B881344FB8172
:10168000BA88FB899A4204D8FA89FB885B009A429F
:1016900008DBFB885B009BB25B42BB81FA89BB899C
:1016A0001344FB81FB8918461437BD465DF8047B63
:1016B000704780B58AB000AFF860B96011461A462D
:1016C0000B46FB801346BB80FB689B887B84FB88B2
:1016D0003B84BB88FB833A8CFB8B9A4204D33A8CC5
:1016E000FB8BD31A9BB208E07B8C5B009AB2398CDF
:1016F000FB8BCB1A9BB213449BB2FB84FB8C002B5D
:1017000001D1002337E0FB689B88FA8C9A421BD9F1
:10171000FB68BB61FB88FB82BB699B88FA8A9A42A3
:1017200005D3BB699B88FA8AD31ABB8204E0BB69E4
:101730009A88FB8A1344BB82BB69BA8A5A81BB8AE6
:10174000BB80FB689B88FB84FB689B887B82BB8893
:101750003B8203E03A8A7B8AD31A3B827A8A3B8AAD
:101760009A42F7D93B8ABB84BB8C1A46B968F868A1
:10177000FFF77AFE012318462837BD4680BD80B5A5
:101780008CB002AFF860B96011461A460B46FB8078
:101790001346BB80FB689B887B84BB883B843B8E65
:1017A000FB833A8CFB8B9A4204D33A8CFB8BD31A83
:1017B0009BB208E07B8C5B009AB2398CFB8BCB1A16
:1017C0009BB213449BB2FB84FB8C002B01D1002302
:1017D00041E0FB689B88FA8C9A421BD9FB68BB618D
:1017E000BB88FB82BB699B88FA8A9A4205D3BB6996
:1017F0009B88FA8AD31ABB8204E0BB699A88FB8A69
:101800001344BB82BB69BA8A5A81BB8A3B86FB6898
:101810009B88FB84FA8CFB889A4201D2FB8CFB806C
:10182000FB689B887B823B8E3B8203E03A8A7B8A03
:10183000D31A3B827A8A3B8A9A42F7D93B8ABB8485
:10184000B98CFA8897F8343000930B46B968F86879
:10185000FFF729FEFB8818462837BD4680BD80B5B6
:1018600092B002AFF860B96011461A460B46FB8091
:1018700013467B71FB88002B01D10023BCE0FB6881
:101880001B89FB87FB685B89FB86BB68BB63FB68C6
:10189000DB79C3F3C013DBB283F00103DBB2002BAF
:1018A00036D0FB689B887B85FB8F3B85FB8EFB845A
:1018B0007B8DBB843B8D7B84FB8C3B847A8C3B8C07
:1018C0009A4204D37A8C3B8CD31A9BB208E0BB8C2F
:1018D0005B009AB2798C3B8CCB1A9BB213449BB2BF
:1018E000FB837A8DFB8B9A4204D97A8DFB8BD31ABA
:1018F0009BB200E000237B86FB88FB857B8EBB854B
:10190000FA8DBB8D934228BF13469BB2FB804BE000
:10191000FB689B88FA889A4217D37B79002B0ED1FB
:10192000FB88FA6892889B1AFA68D288C2F30E0282
:1019300092B202FB03F31A46BB6B1344BB63FB6812
:101940009B88FB80FB8EFB872EE0FB689B88BB831C
:10195000FB8F7B83FB8E3B837A8B3B8B9A4204D33A
:101960007A8B3B8BD31A9BB208E0BB8B5B009AB29D
:10197000798B3B8BCB1A9BB213449BB2BB86BA8E3E
:10198000FB881A44FB689B885B009A420CDBFB686F
:101990009888FB689A88FB88D31A9AB2FB8E1946FE
:1019A000FFF761FE0346FB87FB88002B23D0FB6813
:1019B0009B88FB82FB8FBB8203E0BA8AFB8AD31A27
:1019C000BB82FA8ABB8A9A42F7D9BB8A3B86398E98
:1019D000FA887B7900930B46B96BF868FFF766FCD1
:1019E000FB689B88FA88F98F1846FFF73CFE034690
:1019F0001A46FB681A81FB8818464037BD4680BDF1
:101A000080B586B002AFF860B96011461A460B4641
:101A1000FB8013467B71FB681B8998B2FB685B896E
:101A20009BB2F9887A790192009303460A46B96815
:101A3000F868FFF7A4FE0346FB80FB689888FB6804
:101A40005B899BB2FA881946FFF70DFE03461A46DA
:101A5000FB685A81FB8818461037BD4680BD80B4AC
:101A600087B000AF78607B6899887B681B899AB2E1
:101A70007B685B899BB279823A82FB813A8AFB89D7
:101A80009A4204D33A8AFB89D31A9BB208E07B8A34
:101A90005B009AB2398AFB89CB1A9BB213449BB282
:101AA0007A689288FB821346BB82FA8ABB8A934289
:101AB00028BF13469BB218461C37BD465DF8047B11
:101AC000704780B483B000AF78607B681B899AB29E
:101AD0007B685B899BB29A420CBF01230023DBB277
:101AE00018460C37BD465DF8047B704780B485B05E
:101AF00000AF78607B6899887B681B899AB27B68A5
:101B00005B899BB2F981BA817B81BA897B899A42D0
:101B100004D3BA897B89D31A9BB208E0FB895B00A6
:101B20009AB2B9897B89CB1A9BB213449BB27A686B
:101B3000928893422CBF01230023DBB2184614374E
:101B4000BD465DF8047B704780B487B000AF786015
:101B50007B6899887B681B899AB27B685B899BB29A
:101B6000F982BA827B82FB8A3B82BB8AFB817B8AB9
:101B7000BB81FA89BB899A4204D3FA89BB89D31AFB
:101B80009BB208E03B8A5B009AB2F989BB89CB1A09
:101B90009BB213449BB27B81FA8A7B899A4204D917
:101BA000FA8A7B89D31A9BB200E0002318461C37BF
:101BB000BD465DF8047B704780B584B000AF7860A7
:101BC00039607B681B899AB27B685B899BB23968F4
:101BD0007868FFF76EFD0346FB737B6898887B6827
:101BE0005B899BB2FA7B92B21946FFF73CFD034634
:101BF0001A467B685A81FB7B18461037BD4680BD6C
:101C000080B584B000AFF860B9601346FB80FA88F5
:101C10000023B968F868FFF7F3FE0346184610374B
:101C2000BD4680BD80B584B000AFF860B960134692
:101C3000FB80FA880123B968F868FFF7E1FE0346E4
:101C400018461037BD4680BD80B586B000AF7860BD
:101C500039607B681B89BB827868FFF747FF0346C2
:101C6000002B0CD07B68DB79C3F3C013DBB283F0AD
:101C70000103DBB2002B02D00023FB7522E07B685E
:101C80009B883B82BB8AFB8103E0FA893B8AD31A9B
:101C9000FB813A8AFB899A42F7D9FB897B827B8A4E
:101CA0001A4639687868FFF7E2FA7B689B88B98A38
:101CB00001221846FFF7D7FC03461A467B681A81B3
:101CC0000123FB75FB7D18461837BD4680BD80B5E6
:101CD00084B000AFF860B9601346FB80FA88002337
:101CE000B968F868FFF7BBFD034618461037BD46D4
:101CF00080BD80B584B000AFF860B9601346FB804A
:101D0000FA880123B968F868FFF7A9FD0346184669
:101D10001037BD4680BD80B483B000AF78607B686B
:101D200000225A817B6800221A81012318460C3751
:101D3000BD465DF8047B704780B483B000AF786027
:101D40000B46FB707A68D379F97861F3C713D371C6
:101D5000012318460C37BD465DF8047B704780B4FC
:101D600083B000AF03463960FB711346BB7100BFFF
:101D70000C37BD465DF8047B704780B483B000AF7C
:101D8000786000BF0C37BD465DF8047B704780B4B7
:101D900000AF00231846BD465DF8047B704780B451
:101DA00000AF00231846BD465DF8047B704780B441
:101DB00083B000AF0346FB71002318460C37BD46C5
:101DC0005DF8047B704780B400AF00BFBD465DF88E
:101DD000047B704780B400AF00BFBD465DF8047B54
:101DE000704780B483B000AF0346FB7100BF0C376F
:101DF000BD465DF8047B704780B400AF00BFBD46B0
:101E00005DF8047B704780B483B000AF03463A604E
:101E1000FB710B46BB71002318460C37BD465DF8BD
:101E2000047B704780B400AF064B5B78DBB2002BBD
:101E300014BF01230023DBB21846BD465DF8047BC6
:101E4000704700BF8800002080B400AF074B1B78AC
:101E5000C3F38003DBB2002B14BF01230023DBB2EA
:101E60001846BD465DF8047B704700BF880000201F
:101E700080B400AF054B1B78FF2B14BF0123002358
:101E8000DBB21846BD465DF8047B704718000020A1
:101E900080B58AB000AF0346FB71FFF7E9FF034648
:101EA000002B01D0012379E02C2200213D48FEF7D0
:101EB0008DFA3D4B00221A703C4B7B617B690433E9
:101EC0001846FFF728FF7B69394A1360384B1B68B7
:101ED000002B0AD1374BBB61BB691B6803F00103C0
:101EE000002B00D000BE002358E0334B002B05D060
:101EF0003248AFF300800346314A1360002387F86D
:101F0000273039E097F82730FB740023FB602B4B18
:101F10001B78FA7C9A4206D2294B1A68FB7C5B013B
:101F20001344FB600CE0254B1B78FA7C9A4207D8DF
:101F3000FB7C224A12789B1A5B01224A1344FB6005
:101F4000FB683B623B6A002B03D03B6A5B68002B5B
:101F50000AD1184BFB61FB691B6803F00103002BDE
:101F600000D000BE002319E03B6A5B68984797F8F1
:101F70002730013387F82730104B1B7897F827203C
:101F80009A42BFD9104AFB791370FB79184602F0C8
:101F9000FBFFFB79184603F08FF80123184628371A
:101FA000BD4680BD88000020B40000201C00002039
:101FB00080010020F0ED00E000000000BC000020E7
:101FC000B8000020286000081800002080B588B004
:101FD00000AF0346FB710023FB7733E0FB7FFB740C
:101FE0000023FB60244B1B78FA7C9A4206D2234BD9
:101FF0001A68FB7C5B011344FB600CE01E4B1B78F2
:10200000FA7C9A4207D8FB7C1B4A12789B1A5B0128
:102010001B4A1344FB60FB68BB61BB69002B09D101
:10202000184B7B617B691B6803F00103002B1ED0FA
:1020300000BE1CE0BB69DB68FA7910469847FB7F5D
:102040000133FB770C4B1B78FA7F9A42C6D92C22BE
:1020500000210D48FEF7BAF91022FF210B48FEF7C8
:10206000B5F90C22FF210A48FEF7B0F900E000BFE5
:102070002037BD4680BD00BFBC000020B800002056
:1020800028600008F0ED00E0880000208C000020AF
:102090009C00002080B582B000AF0346FB71FB7945
:1020A0001846FFF793FF01F0F5FB00BF0837BD4668
:1020B00080BD000090B595B000AF78600B46FB7016
:1020C000FFF7D6FE034683F00103DBB2002B40F09E
:1020D0008F81B44B1B68BB6307F108037B637B688C
:1020E0003B63BB6BFB62FB6A1B680020984700BF29
:1020F000BB6B0433796B1846FFF75EFD034687F828
:102100002B30BB6B7B627B6A1B680120984700BF4A
:1021100097F82B3083F00103DBB2002B40F06A818B
:102120007B7A013B072B00F24B8101A252F823F08E
:1021300051210008612100087323000825230008AD
:102140004F2300086F2100081F22000863230008A6
:102150003B7A1846FFF79EFF3A7B934B9A7046E115
:102160003B7A1846FFF796FFFFF734FE3FE18F4BAF
:102170001B78DBB2002B0AD18D4B3B643B6C1B6898
:1021800003F00103002B00F0378100BE34E1874BE0
:102190001B78DBB2013BDAB2844B1A70834B1B789D
:1021A000DBB2002B40F016817F4A137843F0010325
:1021B00013707D4A92F820306FF3000382F82030CC
:1021C000794A92F820306FF3820382F82030764A01
:1021D00092F821306FF3000382F82130724A92F8AE
:1021E00021306FF3820382F821303A7A07F1080335
:1021F00004331946104600F01FF9034683F001032B
:10220000DBB2002B00F0E8803B7A0021184603F097
:1022100047F93B7A8021184603F042F9DCE03B7B2A
:1022200087F84F3097F84F3087F8223097F82230F0
:1022300003F07F03DBB287F84E3097F84F3087F812
:10224000233097F82330DB09DBB287F84D3097F85D
:102250004E2097F84D30544952000A44134403F17C
:10226000200213786FF30003137097F84E2097F84D
:102270004D304D4952000A44134403F120021378B3
:102280006FF38203137097F84E30002B07D1387A22
:102290007A7B3B6997F84F1001F032FBA7E097F883
:1022A0004E2097F84D30404952000A4413441433ED
:1022B0001B7887F821300023FB613E4B1B7897F891
:1022C00021209A4207D23C4B1A6897F821305B01D3
:1022D0001344FB610EE0374B1B7897F821209A429C
:1022E00008D897F82130334A12789B1A5B01334A99
:1022F0001344FB61FB69BB64BB6C002B09D12C4B05
:102300007B647B6C1B6803F00103002B76D000BE5E
:1023100074E0BB6C9C69387A7A7B3B6997F84F1004
:10232000A04764E0204B1B78C3F30003DBB2002B13
:1023300054D01D4B1B78C3F3C003DBB2002B14BF7A
:1023400001230023DBB21846FFF74BFD46E0164B96
:102350001B78C3F30003DBB2002B41D0FFF74CFD29
:102360003EE0FB68002B3DD0FB683A691046984779
:1023700038E00D4BDB78DBB2BB610023FB75FB7DE6
:10238000BA6922FA03F303F00103002B14BF0123FF
:102390000023DBB2002B27D0FB681846FFF7EDFCCB
:1023A00022E000BF8001002088000020B40000204F
:1023B000F0ED00E0BC000020B8000020286000081C
:1023C000104BFB63FB6B1B6803F00103002B0DD06C
:1023D00000BE0BE000BF7CE600BF7AE600BF78E6F7
:1023E00000BF76E600BF74E600BF72E600BF70E68D
:1023F00000BF04E000BF02E000BF00E000BF5437B0
:10240000BD4690BDF0ED00E080B584B000AF03465E
:10241000B9607A60FB73BB685B69184601F046FAE5
:10242000BB685B69F87B7A680121984703461846C8
:102430001037BD4680BD000080B59AB000AF03469E
:102440003960FB71002001F031FA3B681B7803F022
:102450006003DBB2602B0AD1A44B3B633B6B1B6870
:1024600003F00103002B00D000BE0023B7E23B685D
:102470001B7803F06003DBB2402B0AD19C4801F0CB
:1024800015FAFB793A6801211846FFF7BCFC0346B0
:10249000A5E23B681B78C3F30403DBB2022B00F018
:1024A000C781022B00F38E82002B03D0012B00F09A
:1024B0004F8187E23B681B7803F06003DBB2202B7F
:1024C00042D13B689B889BB2FB85FB8DDBB287F8D2
:1024D0003F3097F83F300F2B01D900237FE297F868
:1024E0003F30844A13441B7987F82D300023BB62A8
:1024F000814B1B7897F82D209A4207D27F4B1A68A0
:1025000097F82D305B011344BB620EE07A4B1B78C9
:1025100097F82D209A4208D897F82D30764A1278ED
:102520009B1A5B01764A1344BB62BB6ABB63BB6BFD
:10253000002B01D1002352E2FB793A68B96B1846AF
:10254000FFF762FF03464AE23B681B7803F0600333
:10255000DBB2002B0AD0654B3B643B6C1B6803F07D
:102560000103002B00D000BE002338E23B685B78FB
:10257000092B00F2E08001A252F823F005270008A1
:10258000C926000837270008A326000837270008B7
:10259000A52500088926000837270008C925000856
:1025A000E1250008386801F091F93B685B889BB22F
:1025B000DAB2FB791146184602F0AEFD4D4A1378A7
:1025C00043F002031370C2E04A4B5B78DBB2FB744A
:1025D00007F11302F8790123396801F0EBF8B6E04E
:1025E0003B685B889BB287F84F30424B5B78DBB22D
:1025F00097F84F209A4241D03E4B5B78DBB2002BDC
:1026000014D0FB790021184602F0F2FDFB79184640
:1026100002F04EFE374B9B7887F84E30FB79184618
:10262000FFF7D4FC334A97F84E309370314A97F84D
:102630004F30537097F84F30002B1DD097F84F2034
:10264000FB791146184600F0D3F9034683F00103E5
:10265000DBB2002B0DD0254BBB64BB6C1B6803F0B9
:102660000103002B00D000BE224B00225A70002331
:10267000B5E1FFF7A8FB01E0FFF7ACFBFB79396898
:10268000184601F025F862E0FB793968184600F039
:10269000E1FA034683F00103DBB2002B56D000239E
:1026A0009DE13B685B889BB2012B0BD1114A1378EB
:1026B00043F008031370FB793968184601F008F8F5
:1026C00000BF44E000238AE13B685B889BB2012B9A
:1026D00001D0002383E1074A13786FF3C30313701B
:1026E000FB793968184600F0F3FF30E0F0ED00E0C8
:1026F000071E000888000020BC000020B800002051
:1027000028600008934B1B785B09DBB203F00103E0
:102710009AB2904B1B789B08DBB203F002039BB28A
:1027200013439BB23B8207F11002F8790223396808
:1027300001F040F80BE0884B7B647B6C1B6803F076
:102740000103002B00D000BE002348E100BF45E19B
:102750003B689B889BB2FB84FB8CDBB287F85730CD
:1027600097F857300F2B01D9002338E197F85730ED
:10277000784A13441B7987F8253000233B62774B56
:102780001B7897F825209A4207D2754B1A6897F85C
:1027900025305B0113443B620EE0704B1B7897F8C9
:1027A00025209A4208D897F825306C4A12789B1A4F
:1027B0005B016C4A13443B623B6A3B653B6D002BFB
:1027C00001D100230BE1FB793A68396D1846FFF718
:1027D0001BFE034683F00103DBB2002B00F0FD80FB
:1027E0003B681B7803F06003DBB2002B01D00023B1
:1027F000F5E03B685B780A3B012B16D8002001F01E
:1028000055F83B685B780A2B09D10023FB7307F16D
:102810000F02F8790123396800F0CCFF07E0FB795B
:102820003968184600F054FF01E00023D7E0D4E0F7
:102830003B689B889BB2BB83BB8BDBB287F867305E
:1028400097F86730BB77BB7F03F07F03DBB287F875
:10285000663097F86730FB77FB7FDB09DBB287F8E0
:10286000653097F86630052B0AD93B4BBB65BB6DCD
:102870001B6803F00103002B00D000BE0023AEE074
:1028800097F8662097F86530324952000A4413449D
:1028900014331B78FB7600237B61304B1B78FA7E68
:1028A0009A4206D22E4B1A68FB7E5B0113447B6171
:1028B0000CE02A4B1B78FA7E9A4207D8FB7E274A07
:1028C00012789B1A5B01274A13447B617B693B6644
:1028D0003B681B7803F06003DBB2002B0CD03B6E2F
:1028E000002B01D100237AE0FB793A68396E184653
:1028F000FFF78AFD034672E03B685B78032B17D035
:10290000032B52DC002B02D0012B11D04DE097F8A5
:102910006720FB791146184600F084FE0346BB8110
:1029200007F10C02F8790223396800F043FF48E010
:102930003B685B889BB2002B1DD13B685B78012B09
:1029400012D197F86720FB791146184600F02CFE4B
:1029500011E000BF88000020F0ED00E0BC00002086
:10296000B80000202860000897F86720FB7911461E
:10297000184600F0DBFD3B6E002B21D0FB793A6856
:10298000396E1846FFF740FD002000F08FFF164B10
:1029900093F82130C3F30003DBB2002B10D1FB7995
:1029A0003968184600F094FE0AE0104BFB65FB6D99
:1029B0001B6803F00103002B00D000BE00230EE0D3
:1029C00000BF0BE0094B7B637B6B1B6803F00103CB
:1029D000002B00D000BE002301E000BF01231846F9
:1029E0006837BD4680BD00BF88000020F0ED00E0E4
:1029F00080B596B000AF03460A46FB711346BB7123
:102A0000BB79013BDBB21846FEF702F8F864FB6CB9
:102A1000002B03D0FB6C5B78022B0AD0864B3B6209
:102A20003B6A1B6803F00103002B00D000BE0023AB
:102A3000FDE0FB6CDB795B1103F00103D9B27F4A47
:102A4000137861F304131370FB6CDB799B1103F0B3
:102A50000103D9B2794A137861F345131370FB6C03
:102A600009337B65FB6C5B889BB21A46FB6C134495
:102A7000BB64D6E0012387F853307B6DFB61FB69B3
:102A800001331B780B2B0FD17B6D7B647B6CDB7868
:102A900087F853307B6DBB61BB697B617B691B78B9
:102AA0001A467B6913447B657B6D3B613B6901334F
:102AB0001B78042B0AD0604B7B627B6A1B6803F097
:102AC0000103002B00D000BE0023B0E07B6D3B640F
:102AD000BA6C7B6DD31AFB87002387F8523088E0ED
:102AE00097F85230FB730023BB60554B1B78FA7B81
:102AF0009A4206D2534B1A68FB7B5B011344BB60BE
:102B00000CE04F4B1B78FA7B9A4207D8FB7B4C4A70
:102B100012789B1A5B014C4A1344BB60BB68BB63D1
:102B2000BB6B002B0AD1444BFB62FB6A1B6803F0B2
:102B30000103002B00D000BE002378E0BB6B1B69B3
:102B4000FA8FF879396C98470346FB86FB8E082B81
:102B50004AD9FA8EFB8F9A4246D897F85330012B08
:102B600007D1BB6B1B69394A934202D1022387F814
:102B70005330002387F8513024E03B6C9A7897F863
:102B80005130134487F8353097F835302B4A1344C9
:102B90001B79FF2B0AD0284B3B633B6B1B6803F070
:102BA0000103002B00D000BE002340E097F8353031
:102BB000224A134497F852201A7197F85130013382
:102BC00087F8513097F8512097F853309A42D4D370
:102BD00097F85230FA8E396C1D48FEF769FAFB8E71
:102BE0007A6D13447B650BE097F85230013387F818
:102BF0005230134B1B7897F852209A427FF670AFF1
:102C00000F4B1B7897F852209A420AD90A4BBB62A5
:102C1000BB6A1B6803F00103002B00D000BE002339
:102C200005E07A6DBB6C9A42FFF424AF012318468D
:102C30005837BD4680BD00BFF0ED00E088000020A1
:102C4000BC000020B800002028600008513E0008A9
:102C50009C00002080B594B000AF03463960FB7142
:102C60003B685B889BB2BB84BB8C1B0A9BB2DBB20C
:102C700087F84B303B685B889BB2FB84FB8CDBB2F4
:102C800087F84A3097F84B30013B0E2B00F2B480A6
:102C900001A252F823F000BFD52C0008392D0008FE
:102CA0009F2D0008F92D0008F92D0008D32D0008EC
:102CB000392D0008F92D0008F92D0008F92D00081C
:102CC000F92D0008F92D0008F92D0008F92D00084C
:102CD000072D0008FDF792FEF862FB6A002B0AD16F
:102CE000484BBB62BB6A1B6803F00103002B00D09A
:102CF00000BE002381E0F8791223FA6A396800F0F7
:102D000059FD034679E0FFF742F803467B647B6C8C
:102D1000002B01D1002370E07B6C02333B623B6AE5
:102D20001B88A7F842307A6CB7F84230F8793968D6
:102D300000F040FD034660E097F84B30022B14D1C1
:102D400097F84A301846FDF763FE0346FB64FB6CB8
:102D5000002B16D12B4B7B637B6B1B6803F00103AD
:102D6000002B00D000BE002347E097F84A301846F9
:102D7000FFF71DF80346FB64FB6C002B01D1002319
:102D80003BE0FB6C0233FB61FB691B887B86FA6CC2
:102D90007B8EF879396800F00DFD03462DE03B6825
:102DA0009B889AB297F84A3011461846FDF73EFEC6
:102DB000B863BB6B002B01D100231EE0BB6BBB6172
:102DC000BB691B78F879BA6B396800F0F3FC0346ED
:102DD00013E0FEF7E4FFF863FB6B002B01D1002347
:102DE0000BE0FB6B7B617B691B78F879FA6B3968C8
:102DF00000F0E0FC034600E0002318465037BD46D3
:102E000080BD00BFF0ED00E080B5AAB000AF7860F3
:102E10000B46FB70002387F8A7307B685B78023B8A
:102E2000042B00F2908101A252F823F0412E0008F9
:102E3000B12E00086D2E00088F2E000831310008D9
:102E4000B44A13786FF300031370B24A13786FF328
:102E500041031370AF4B00225A70AE4A13786FF3E0
:102E600082031370012387F8A73075E1A94B1B7803
:102E7000C3F30003DBB2002B00F06981A54A13788D
:102E800043F004031370012387F8A7305FE1A14BDF
:102E90001B78C3F30003DBB2002B00F05A819D4A7C
:102EA00013786FF382031370012387F8A73050E182
:102EB000002387F8A63040E097F8A63087F89F30C7
:102EC0000023C7F89830944B1B7897F89F209A42BC
:102ED00008D2924B1A6897F89F305B011344C7F8E9
:102EE00098300FE08C4B1B7897F89F209A4209D8B6
:102EF00097F89F30884A12789B1A5B01884A1344DE
:102F0000C7F89830D7F89830C7F8A030D7F8A03075
:102F1000002B0DD0D7F8A030DB69002B08D0D7F8F4
:102F2000A030DB697A6810787A6852681146984751
:102F300097F8A630013387F8A630774B1B7897F8BF
:102F4000A6209A42B8D9734B1B78C3F38003DBB237
:102F5000002B6CD06F4A13786FF38203137007F164
:102F6000180300221A605A609A607B681B783B76CF
:102F700005237B7607F11803C7F89430FB7887F8B0
:102F80009330684B1B68C7F88C30D7F89430C7F87B
:102F9000883097F8933087F8873097F8873083F038
:102FA0000103DBB2002B09D0D7F88C30C7F8803092
:102FB000D7F880301B680020984700BFD7F88C30C6
:102FC0000433D7F888101846FEF73EFE034687F80C
:102FD0007F3097F8873083F00103DBB2002B07D0F6
:102FE000D7F88C30BB67BB6F1B680120984700BFC8
:102FF00097F87F3083F00103DBB2002B09D04A4BF6
:103000007B677B6F1B6803F00103002B0ED000BEB3
:103010000CE0D7F894301878D7F894305B781946DC
:1030200097F893301A46FEF79AFE00E000BF394B3E
:10303000DB78DBB23B67002387F86F3097F86F309F
:103040003A6F22FA03F303F00103002B14BF0123AC
:103050000023DBB2002B7ED007F10C0300221A60A4
:103060005A609A607B681B783B7303237B737B6891
:103070005B683B6107F10C03BB66FB7887F8673040
:10308000284B1B683B66BB6EFB6597F8673087F87B
:103090005B3097F85B3083F00103DBB2002B06D086
:1030A0003B6E7B657B6D1B680020984700BF3B6EC5
:1030B0000433F96D1846FEF7C7FD034687F8533011
:1030C00097F85B3083F00103DBB2002B06D03B6E38
:1030D000FB64FB6C1B680120984700BF97F85330D6
:1030E00083F00103DBB2002B09D00F4BBB64BB6C38
:1030F0001B6803F00103002B18D000BE16E0BB6E66
:103100001878BB6E5B78194697F867301A46FEF759
:1031100026FE0CE088000020BC000020B800002043
:103120002860000880010020F0ED00E000BF12E000
:10313000354B1B78DBB20133DAB2334B1A70012303
:1031400087F8A73008E0012387F8A73004E000BF24
:1031500002E000BF00E000BF97F8A730002B4FD07F
:103160007B687B64FB7887F84330284B1B68FB63E4
:103170007B6CBB6397F8433087F8373097F837306C
:1031800083F00103DBB2002B06D0FB6B3B633B6B90
:103190001B680020984700BFFB6B0433B96B1846CF
:1031A000FEF752FD034687F82F3097F8373083F04B
:1031B0000103DBB2002B06D0FB6BBB62BB6A1B6852
:1031C0000120984700BF97F82F3083F00103DBB24E
:1031D000002B09D00E4B7B627B6A1B6803F0010356
:1031E000002B0CD000BE0AE07B6C18787B6C5B78FF
:1031F000194697F843301A46FEF7B1FD00E000BFCC
:1032000000BFA837BD4680BDB4000020800100206B
:10321000F0ED00E080B582B000AF0346FB71FB79B2
:10322000002B05D0074B1B78184601F045FF04E042
:10323000044B1B78184601F057FF00BF0837BD4606
:1032400080BD00BF1800002080B58AB000AF396093
:1032500011461A460346FB710B46BB7113467B7140
:1032600000237B624DE03B683B623B6A5B78052B49
:1032700008D13B6ADB78C3F30103DBB21A467B79E2
:1032800093420AD0234BBB61BB691B6803F0010367
:10329000002B00D000BE002338E0FB79396A1846C5
:1032A00000F03AF8034683F00103DBB2002B0AD0AA
:1032B000184BFB61FB691B6803F00103002B00D076
:1032C00000BE002322E03B6A9B78FB75FB7DDB0997
:1032D000DBB2012B04D13B6A9A787B6B1A7003E056
:1032E0003B6A9A783B6B1A703B683B613B69FB60B9
:1032F000FB681B781A46FB6813443B607B6A01330A
:103300007B62BB797A6A9A42ADDB01231846283783
:10331000BD4680BDF0ED00E080B586B000AF03464D
:103320003960FB711B4B1B78FB713B689B78FB730F
:10333000FB7B03F07F03DBB2052B0AD9164B3B6105
:103340003B691B6803F00103002B00D000BE002383
:103350001CE0124B9B7819463868FDF72DFE03469A
:1033600083F00103DBB2002B0AD00B4B7B617B693E
:103370001B6803F00103002B00D000BE002305E012
:10338000FB793968184601F061FF03461846183783
:10339000BD4680BD18000020F0ED00E08800002050
:1033A00080B586B000AF03460A46FB711346BB7179
:1033B000BB79BB73BB7B03F07F03DBB2FB75BB79CF
:1033C000FB73FB7BDB09DBB2BB75FA7DBB7D520077
:1033D00013442033054A13443B6100213869FDF74B
:1033E00087FD034618461837BD4680BD880000207B
:1033F00080B586B000AF03460A46FB711346BB7129
:10340000BB79BB73BB7B03F07F03DBB2FB75BB797E
:10341000FB73FB7BDB09DBB2BB75FA7DBB7D520026
:1034200013442033054A13443B6100213869FDF7FA
:1034300099FD034618461837BD4680BD8800002018
:1034400080B586B000AF3A601A460346FB710B4662
:10345000BB711346BB80324B1B78FB71BB79BB72CF
:10346000BB7A03F07F03DBB2FB75BB79FB72FB7A9F
:10347000DB09DBB2BB75FA7DBB7D2A4952000A44E9
:10348000134420331B78C3F30003DBB2002B0AD0B4
:10349000254BFB60FB681B6803F00103002B00D089
:1034A00000BE002338E0FA7DBB7D1E4952000A446D
:1034B000134403F12002137843F001031370BB8817
:1034C000B979F8793A6801F083FF0346002B01D0FF
:1034D000012321E0FA7DBB7D124952000A441344C6
:1034E00003F1200213786FF300031370FA7DBB7DA4
:1034F0000C4952000A44134403F1200213786FF37D
:1035000082031370084B3B613B691B6803F00103A6
:10351000002B00D000BE002318461837BD4680BDE2
:103520001800002088000020F0ED00E080B584B095
:1035300000AF03460A46FB711346BB71184B1B785C
:10354000FB71BB793B733B7B03F07F03DBB2FB7307
:10355000BB797B737B7BDB09DBB2BB73BA79FB790D
:103560001146184601F09CFFFA7BBB7B0D495200C7
:103570000A44134403F12002137843F0020313704A
:10358000FA7BBB7B074952000A44134403F1200233
:10359000137843F00103137000BF1037BD4680BDA0
:1035A000180000208800002080B584B000AF0346DA
:1035B0000A46FB711346BB71184B1B78FB71BB7934
:1035C0003B733B7B03F07F03DBB2FB73BB797B7305
:1035D0007B7BDB09DBB2BB73BA79FB7911461846FA
:1035E00001F070FFFA7BBB7B0D4952000A44134483
:1035F00003F1200213786FF341031370FA7BBB7B56
:10360000074952000A44134403F1200213786FF370
:103610000003137000BF1037BD4680BD18000020A6
:103620008800002080B485B000AF03460A46FB71D5
:103630001346BB71BB793B733B7B03F07F03DBB26B
:10364000FB73BB797B737B7BDB09DBB2BB73FA7BE0
:10365000BB7B0A4952000A44134420331B78C3F34E
:103660004003DBB2002B14BF01230023DBB218465A
:103670001437BD465DF8047B704700BF880000200A
:1036800080B483B000AF03463960FB7100BF0C37D4
:10369000BD465DF8047B704780B584B000AF03463B
:1036A0003960FB713B681B7823F07F03DBB2002B92
:1036B00001D0002300E08023FB73F97BF87900231D
:1036C0000022FFF7BDFE034618461037BD4680BDF9
:1036D00080B582B000AF03463960FB710B4B3A688E
:1036E0001068516803C3094B00229A60074B0022FF
:1036F000DA81064B00229A81FB7939681846FFF778
:10370000CBFF034618460837BD4680BD8401002024
:1037100080B588B000AF0346FB71244B9A89234BD8
:10372000DB89D31A9BB27B8340233B837A8B3B8B11
:10373000934228BF13469BB2BB830023FB771B4BEE
:103740001B7823F07F03DBB2002B1ED08023FB7796
:10375000BB8B002B19D0154B9A68BB8B1449796130
:1037600040213961FA60BB603A69BB689A4202D273
:103770004FF0FF3305E0BA68F9687869FCF78CFD13
:103780000023002B01D000230BE0BB8B002B01D0CA
:10379000074A00E00022BB8BF97FF879FFF750FE63
:1037A000034618462037BD4680BD00BF8401002077
:1037B0009801002080B588B000AFB9607A601A46E1
:1037C0000346FB731346BB81304BBA6810685168DF
:1037D00003C32E4A7B6893602C4B0022DA81BB68BE
:1037E000DB889AB2BB897B8213463B827A8A3B8A0A
:1037F000934228BF13469AB2244B9A81BB68DB8858
:103800009BB2002B26D0214B9B89002B0DD07B68CF
:10381000002B0AD11E4BBB61BB691B6803F001037F
:10382000002B00D000BE00232BE0FB7B1846FFF7E7
:103830006FFF034683F00103DBB2002B20D0144B53
:103840007B617B691B6803F00103002B00D000BE85
:10385000002316E0FB7BB9681846FFF71DFF0346FF
:1038600083F00103DBB2002B0AD0094BFB61FB693B
:103870001B6803F00103002B00D000BE002300E012
:10388000012318462037BD4680BD00BF84010020BB
:10389000F0ED00E080B500AF142200210248FCF7F3
:1038A00095FD00BF80BD00BF8401002080B483B0BF
:1038B00000AF7860044A7B68136100BF0C37BD46D7
:1038C0005DF8047B704700BF8401002080B483B0A2
:1038D00000AF7860094B7A681068516803C3074BE2
:1038E00000229A60054B0022DA81044B00229A8163
:1038F00000BF0C37BD465DF8047B70478401002093
:1039000080B588B000AF3B600346FB710B46BB71CE
:1039100013467B71BB79FB73FB7BDB09DBB24F4A40
:103920001278C2F3C012D2B293421ED03B68002B71
:103930000AD04B4B3B613B691B6803F00103002B32
:1039400000D000BE002384E0FB7944491846FFF70D
:1039500097FE424B1B69002B05D0404B1B69F87941
:103960003E4A03219847012373E03C4B1B7823F028
:103970007F03DBB2002B0CD1384B9B68002B01D1AD
:10398000002366E0354B9B683A6836491846FCF7D9
:1039900083FC324BDA893B689BB213449AB22F4BBB
:1039A000DA812E4B9A683B6813442C4A93602B4B68
:1039B000DA882A4BDB899A4202D03B683F2B31D808
:1039C0000123FB77254B1B69002B07D0234B1B6979
:1039D000F879224A022198470346FB77FB7F002BA8
:1039E00015D0FB791D491846FFF756FE034683F0B4
:1039F0000103DBB2002B2AD0194B7B617B691B686A
:103A000003F00103002B00D000BE002321E0FB796E
:103A10000021184601F044FDFB798021184601F091
:103A20003FFD14E0FB791846FFF772FE034683F072
:103A30000103DBB2002B0BD0094BBB61BB691B68D8
:103A400003F00103002B00D000BE002301E000BF03
:103A5000012318462037BD4680BD00BF84010020E9
:103A6000F0ED00E09801002080B584B000AF7860F0
:103A70000023FB73FEF7D6F90346002B09D0FEF7AF
:103A8000E3F9034683F00103DBB2002B01D00123ED
:103A900000E0002303F00103DBB283F00103DBB29B
:103AA000002B03D17B68DB78002B01D1002337E0AA
:103AB0007B6810331846FEF747F80346BB81BB8985
:103AC0003F2B01D800232BE07B68DA78FB7B114683
:103AD0001846FFF765FC034683F00103DBB2002BB9
:103AE00001D000231CE07B6810331846FEF72CF849
:103AF0000346BB81BB893F2B0AD97B68D9787B6899
:103B000003F58562F87B4023FFF79AFC034607E044
:103B10007B68DA78FB7B11461846FFF769FC0023C7
:103B200018461037BD4680BD80B582B000AF034651
:103B3000FB71FB794FF4956202FB03F31033054AE6
:103B400013441846FDF78BFF034618460837BD4659
:103B500080BD00BFD801002080B586B000AF03460D
:103B6000B9607A60FB73FB7B4FF4956202FB03F351
:103B70000E4A13447B617B6903F110007B684FF6AA
:103B8000FE72934202D87B689BB201E04FF6FF734E
:103B90001A46B968FEF734F803463B617869FFF7C7
:103BA00063FF3B6918461837BD4680BDD801002029
:103BB00080B586B000AF0346B9607A60FB73FB7BCB
:103BC0004FF4956202FB03F3134A13447B617B6954
:103BD00003F11C007B684FF6FE72934202D87B68AB
:103BE0009BB201E04FF6FF731A46B968FEF76FF813
:103BF00003467B827B691C331846FDF730FF034682
:103C00003F2B03D9FB7B184600F008F87B8A184647
:103C10001837BD4680BD00BFD801002080B586B0F2
:103C200000AF0346FB71FB794FF4956202FB03F38F
:103C3000374A13447B61FEF7F5F80346002B09D0A1
:103C4000FEF702F9034683F00103DBB2002B01D03B
:103C5000012300E0002303F00103DBB283F0010342
:103C6000DBB2002B01D000234DE07B691C331846EA
:103C7000FDF7F5FE0346002B01D1002343E00023AE
:103C8000FB747B699A78FB7C11461846FFF788FB2A
:103C9000034683F00103DBB2002B01D0002332E0A6
:103CA0007B6903F11C007B6903F58D634022194693
:103CB000FDF7A6FF03463B823B8A002B1BD07B69A6
:103CC00099787B6903F58D623B8AF87CFFF7B8FB36
:103CD000034683F00103DBB2002B0AD00D4BFB60DF
:103CE000FB681B6803F00103002B00D000BE00231B
:103CF00009E03B8A07E07B699A78FB7C114618460D
:103D0000FFF776FB002318461837BD4680BD00BF7D
:103D1000D8010020F0ED00E080B584B002AF4FF490
:103D2000956200212348FCF751FB01220021224823
:103D3000FCF74CFB0023FB7134E0FB794FF49562F8
:103D400002FB03F31B4A13443B603B68FF225A719A
:103D50003B684FF4E1329A603B6800221A733B687B
:103D600000225A733B6808229A733B6803F11000E3
:103D70003B6803F128010023009301234FF40072F4
:103D8000FDF7DBF93B6803F11C003B6803F50A71A2
:103D90000123009301234FF40072FDF7CEF9FB7964
:103DA0000133FB71FB79002BC7D000BF00BF083780
:103DB000BD4680BDD80100208006002080B400AF41
:103DC00001231846BD465DF8047B704780B584B07A
:103DD00000AF0346FB710023FB732DE0FB7B4FF428
:103DE000956202FB03F3184A1344BB6005220021CD
:103DF000B868FCF7EBFA154B1B7803F00103DBB254
:103E0000002B04D1BB6810331846FDF784FF0F4B1D
:103E10001B7803F00203DBB2002B04D1BB681C3318
:103E20001846FDF778FFBB681C3301211846FDF7E3
:103E300083FFFB7B0133FB73FB7B002BCED000BFEA
:103E400000BF1037BD4680BDD8010020800600208D
:103E500080B59AB002AF03463960FB711346BB8050
:103E60003B685B79022B03D13B689B79022B01D025
:103E70000023E1E00023FB65002387F85B301AE0B4
:103E800097F85B306E4A4FF4956101FB03F31344DE
:103E900002331B78002B09D197F85B304FF4956201
:103EA00002FB03F3664A1344FB6508E097F85B30B6
:103EB000013387F85B3097F85B30002BE0D0FB6D67
:103EC000002B0AD15F4B7B647B6C1B6803F0010302
:103ED000002B00D000BE0023AEE03B689A78FB6D5B
:103EE0001A700923A7F858303B683B643B6CFB63AE
:103EF000FB6B1B781A46FB6B13447B6513E07B6DF1
:103F00003B633B6B1B781A46B7F858301344A7F84D
:103F100058307B6DBB63BB6B7B637B6B1B781A4636
:103F20007B6B13447B657B6DFB62FB6A01331B7803
:103F3000242B04D1B7F85820BB889A42DFD97B6D77
:103F4000BB62BB6A01331B78052B2FD17B6D3B65B0
:103F5000FB79396D1846FFF7DFF9034683F001035B
:103F6000DBB2002B0AD0374BFB64FB6C1B6803F001
:103F70000103002B00D000BE00235DE03B6D9A786A
:103F8000FB6D5A707B6DFB61FB691B781A46B7F8B5
:103F900058301344A7F858307B6D7B627B6A3B62D4
:103FA0003B6A1B781A463B6A13447B657B6DBB6199
:103FB000BB6901331B78042B39D17B6D5B790A2BEC
:103FC00035D17B6DFB60FB681B781A46B7F858301B
:103FD0001344A7F858307B6D7B617B693B613B697B
:103FE0001B781A463B6913447B65FB6D0333FA6DFE
:103FF0000232F8790192009302230222796DFFF7D1
:1040000023F9034683F00103DBB2002B0AD00D4BEA
:10401000BB64BB6C1B6803F00103002B00D000BE27
:10402000002309E0B7F858300E33A7F85830F86D80
:10403000FFF71AFDB7F8583018466037BD4680BD07
:10404000D8010020F0ED00E080B58AB000AF034653
:104050003A60FB710B46BB713B681B7803F0600351
:10406000DBB2202B01D00023CFE0002387F82730DC
:10407000684B3B6297F82730002B01D00023C4E047
:104080003B6A1B781A463B689B889BB29A4209D0D0
:1040900097F82730013387F827303B6A03F595639B
:1040A0003B62E7E700BF3B685B78203B032B00F2F5
:1040B000A28001A252F823F0C9400008054100087F
:1040C0001D410008C5410008BB79012B08D13B6A9E
:1040D00003F10802F87907233968FFF76BFB8CE0DE
:1040E000BB79032B40F089804B4B002B00F085807F
:1040F0003B6A03F1080297F8273011461846AFF3E0
:1041000000807AE0BB79012B79D13B6A03F1080288
:10411000F87907233968FFF74DFB70E0BB79012B75
:1041200005D1FB7939681846FFF7D2FA69E0BB7907
:10413000032B66D13B685B889BB23B610023FB731A
:10414000FB7B3A6922FA03F303F00103002B14BF4F
:1041500001230023DBB2FB773B685B889BB2BB612A
:104160000123FB75FB7DBA6922FA03F303F0010317
:10417000002B14BF01230023DBB2BB773B685B88B5
:104180009BB2DAB23B6A1A713B6A03F11C02FB7FF5
:10419000002B14BF01230023DBB283F00103DBB249
:1041A00003F00103DBB219461046FDF7C5FD1B4BBA
:1041B000002B26D0BA7FF97F97F827301846AFF347
:1041C00000801EE0BB79012B05D1FB7939681846C8
:1041D000FFF77EFA17E0BB79032B14D1104B002BAD
:1041E00011D03B685B889AB297F827301146184681
:1041F000AFF3008007E0002307E000BF04E000BF4A
:1042000002E000BF00E000BF012318462837BD468A
:1042100080BD00BFD80100200000000000000000A9
:104220000000000080B586B000AF3B600346FB7124
:104230000B46BB7113467B710023FB7514E0FB7DBD
:104240004FF4956202FB03F3554A13443B613B690B
:10425000DB78BA799A420AD03B699B78BA799A425C
:1042600005D0FB7D0133FB75FB7D002BE7D0FB7D8B
:10427000002B0AD04B4BBB60BB681B6803F00103EB
:10428000002B00D000BE002386E03B69DB78BA79C2
:104290009A424CD13B6903F110003B6903F58563F9
:1042A0003A6892B21946FDF712FD3F4B002B29D018
:1042B0003B695B79FF2B25D00023FB601EE03B6947
:1042C0005A793969FB680B4403F585631B789A4278
:1042D00011D13B6910331846FDF7F3FB034683F019
:1042E0000103DBB2002B06D03B695A79FB7D1146F6
:1042F0001846AFF30080FB680133FB60FA683B6847
:104300009A42DCD3294B002B0ED03B691033184660
:10431000FDF7D7FB034683F00103DBB2002B03D08C
:10432000FB7D1846AFF300803869FFF79DFB3B69C2
:104330009B78BA799A422ED11D4B002B03D0FB7D7E
:104340001846AFF30080FB7D1846FFF767FC034675
:10435000002B20D13B691C331846FDF780FB034638
:10436000002B18D13B68002B15D03B6803F03F03AE
:10437000002B10D13B699A78FB7911461846FFF75C
:104380000FF80346002B06D03B699978F879002393
:104390000022FFF755F8012318461837BD4680BDA7
:1043A000D8010020F0ED00E0000000000000000057
:1043B0000000000080B483B000AF0346FB7197F9A2
:1043C0000730002B0BDBFB7903F01F02074997F93D
:1043D00007305B09012000FA02F241F8232000BFF8
:1043E0000C37BD465DF8047B704700BF00E100E07C
:1043F00080B483B000AF0346FB7197F90730002B00
:1044000012DBFB7903F01F020A4997F907305B09B9
:10441000012000FA02F2203341F82320BFF34F8F2E
:1044200000BFBFF36F8F00BF00BF0C37BD465DF804
:10443000047B704700E100E080B483B000AF786097
:104440000B46FB70FB78002B06D17B689B6B43F41B
:1044500080327B689A6305E07B689B6B23F4803233
:104460007B689A6300BF0C37BD465DF8047B7047DC
:1044700080B485B000AF78600B46FB70FB78002BF2
:1044800052D12C4B1B682C4A934202D30623FB606B
:1044900041E0284B1B68294A934202D90723FB605D
:1044A00039E0244B1B68264A934202D30823FB6061
:1044B00031E0204B1B68234A934202D90923FB6059
:1044C00029E01C4B1B68204A934202D90A23FB6057
:1044D00021E0184B1B681D4A934202D90B23FB6055
:1044E00019E0144B1B681A4A934202D30C23FB6059
:1044F00011E0104B1B68174A934202D30D23FB6057
:1045000009E00C4B1B68144A934202D30E23FB6054
:1045100001E00F23FB607B68DB6823F47052FB68CB
:104520009B021A437B68DA6000BF1437BD465DF812
:10453000047B7047140000200048E801DF9DA301C0
:1045400000366E013FA44C01FF2C31019F491A0136
:10455000807306010024F400C0E1E40080B483B05D
:1045600000AF03460A46FB8013467B71FB889B081D
:104570009AB27B799BB213449BB25B009BB20F3320
:104580009BB218460C37BD465DF8047B70470000AF
:1045900080B58CB000AF0346FB710B46BB71134670
:1045A000BB80FB79524A1B0113441B68BB62FB7939
:1045B0004F4A1B01134408331B7887F82730BB7917
:1045C000BB74BB7C03F07F03DBB287F82630BB797A
:1045D000FB74FB7CDB09DBB287F8253097F82620DB
:1045E00097F827309A420AD3424B7B617B691B685C
:1045F00003F00103002B00D000BE002373E0BB8852
:10460000FB600423BB60FA68BB6813445A1EBB6896
:10461000B2FBF3F3FB8597F82530002B28D1FB8DF7
:104620009B009BB297F8272011461846FFF796FF8C
:104630000346FB83BB6A5A6AFB8B9A4252D2FB8BBE
:104640002D4A128813441A464FF4A0639B089A42DD
:104650000AD9284BBB61BB691B6803F00103002B1F
:1046600000D000BE00233EE0FA8BBB6A5A6239E0FC
:10467000BB6A9B6803F08003002B02D1FB8D5B00BB
:10468000FB851D4B1B881A46FB8D13441A46BB6ADB
:104690005B6A1A444FF4A0639B089A420AD9154BEF
:1046A0003B623B6A1B6803F00103002B00D000BE95
:1046B000002318E0104B1A88FB8D13449AB20E4B5E
:1046C0001A80FB8D19044FF4A0639B080A4A1288D4
:1046D0009A1A97F82630013B0A43B96A40339B0087
:1046E0000B445A60012318463037BD4680BD00BFD9
:1046F00048600008F0ED00E01007002080B489B0A9
:1047000000AF03463960FB71FB793A4A1B01134441
:104710001B68FB613B689B78BB72BB7A03F07F032D
:10472000DBB2FB763B689B78FB72FB7ADB09DBB282
:10473000BB76FA7EBB7E520013441B012E4A134403
:104740007B613B68FB60FB689B889BB2C3F30A03F9
:104750009AB27B695A813B689A797B691A733B6884
:10476000DB78C3F30103DBB29B043A68D27802F032
:104770000302D2B2012A02D04FF0805200E00022A0
:1047800013437A695289134343F400433B61BB7E70
:10479000002B13D1FB7EFA6958335B0113443A694D
:1047A0001A60FB69D3F81C28FB7E1033012101FA43
:1047B00003F31A43FB69C3F81C2814E0FB7E990538
:1047C000FB7E3A690A43F96948335B010B441A607E
:1047D000FB69D3F81C38FA7E012101FA02F21A4370
:1047E000FB69C3F81C2800BF2437BD465DF8047B75
:1047F000704700BF486000088C06002080B48BB072
:1048000000AF0346FB710B46BB7113467B71FB790E
:104810007C4A1B0113441B687B62BB79BB75BB7D63
:1048200003F07F03DBB287F82330BB79FB75FB7D98
:10483000DB09DBB287F8223097F82230012B77D1E1
:104840007B6A03F51063BB6197F82330002B07D018
:1048500097F823305B01BA6913441B68002B15DB02
:1048600097F823305B01BA6913441A687B79002BEF
:1048700002D04FF0026101E04FF0006197F8233061
:104880005B01B86903440A431A603EE097F823309D
:104890005B01BA6913441A6897F823305B01B96960
:1048A0000B4442F000621A6000BF97F823305B01AE
:1048B000BA6913449B6803F04003002BF5D097F8C6
:1048C00023305B01BA6913441A687B79002B01D04D
:1048D0004D4901E04FF0804197F823305B01B86902
:1048E00003440A431A6000BF97F823305B01BA699A
:1048F00013449B6803F00203002BF5D097F8233094
:104900005B01BA69134402229A607B6A3B6197F8A3
:104910002330FB73FB7B9B0143F020023B691A6150
:1049200000BF3B691B6903F02003002BF9D162E053
:104930007B6A03F53063FB6197F82330002B07D0C7
:1049400097F823305B01FA6913441B68002B14DBD2
:1049500097F823305B01FA6913441A687B79002BBE
:1049600002D04FF4001100E0002197F823305B01E2
:10497000F86903440A431A603DE07B6AD3F80438BF
:1049800043F400727B6AC3F8042800BF7B6A5B694A
:1049900003F08003002BF9D097F823305B01FA690C
:1049A00013441A687B79002B01D0174901E04FF0BE
:1049B000804197F823305B01F86903440A431A6089
:1049C00000BF97F823305B01FA6913449B6803F03A
:1049D0000203002BF5D097F823305B01FA691344EA
:1049E00002229A607B6AD3F8043843F480627B6ABF
:1049F000C3F8042800BF00BF2C37BD465DF8047B18
:104A0000704700BF486000080000204080B588B0B3
:104A100000AF0346FB71FB795A4A1B0113441B6824
:104A2000BB61FB79574A1B01134408331B78FB75A4
:104A3000802200215448FBF7C9FC544B00221A7015
:104A4000BB69D3F8003823F4FE62BB69C3F80028C1
:104A50000023FB7710E0FB7FBA6958335B011344F6
:104A60001A68FB7F42F00062B96958335B010B445E
:104A70001A60FB7F0133FB77FA7FFB7D9A42EAD312
:104A80000023BB7718E0BB7FBA6948335B0113444E
:104A90001B68002B0DDABB7FBA6948335B011344F6
:104AA0001A68BB7F42F09042B96948335B010B44FE
:104AB0001A60BB7F0133BB77BA7FFB7D9A42E2D39A
:104AC000BB69FB601023FB72FB7A9B0143F0200261
:104AD000FB681A6100BFFB681B6903F02003002B11
:104AE000F9D100BFBB693B613B6910221A6100BF6D
:104AF0003B691B6903F01003002BF9D100BFBB69B0
:104B00004FF00112C3F81C28BB690922C3F814280E
:104B1000BB690922C3F81028FB7D19464020FFF726
:104B20001DFD03461A46BB695A62194B10221A80B2
:104B30004FF4A0639B08164A12889B1A43F4801214
:104B4000BB699A62BB69D3F8003923F00302BB69E1
:104B5000C3F800290C4B40225A810B4B40225A8348
:104B6000BB69D3F8103B43F0C042BB69C3F8102BBC
:104B7000BB699B6943F44022BB699A6100BF20373F
:104B8000BD4680BD486000088C060020120700204A
:104B90001007002090B48AB000AF044608461146C2
:104BA0001A462346FB710346BB710B467B711346C5
:104BB0007B80FB79704A1B0113441B687B62BB79C5
:104BC000002B21D1BA797B79520013441B016B4A27
:104BD00013443B627B796A4A32F813203B6A5B8953
:104BE000FA81BB81FA89BB89934228BF13469BB2E5
:104BF0003B867B79624A32F813107B793A8E8A1AA7
:104C000091B25F4A22F813107B79012B55D17B6A50
:104C100003F510637B617B88D9043A8EBB795B0115
:104C2000786903440A431A61BB795B017A691344CA
:104C30001A68BB795B0179690B4442F004421A603F
:104C4000BB795B017A6913441B6803F44023B3F515
:104C5000802F23D1BA797B794849520013441B0134
:104C60000B440C331B78012B18D17B6AD3F808381E
:104C700003F480733B61BB795B017A6913441A6862
:104C80003B69002B02D04FF0805101E04FF0005102
:104C9000BB795B01786903440A431A603B8E002BA1
:104CA00064D07B6AD3F83438BA79012101FA02F270
:104CB0001A437B6AC3F8342858E07B6A03F53063F3
:104CC000FB61BB795B01FA6913441A69BB795B012B
:104CD000F9690B4402F060421A61BB795B01FA6921
:104CE000134419697B88DA043B8E1A43BB795B0154
:104CF000F86903440A431A61BB795B01FA691344FA
:104D00001A68BB795B01F9690B4442F004421A60EE
:104D1000BB795B01FA6913441B6803F44023B3F5C4
:104D2000802F23D1BA797B791449520013441B0197
:104D30000B440C331B78012B18D17B6AD3F808384D
:104D400003F48073BB61BB795B01FA6913441A6891
:104D5000BB69002B02D04FF0805101E04FF00051B1
:104D6000BB795B01F86903440A431A6000BF283726
:104D7000BD4690BC704700BF486000088C0600200C
:104D80000C07002080B483B000AF78607B681B699B
:104D900043F001027B681A6100BF7B681B6903F066
:104DA0000103002BF9D100BF7B681B69002BFBDAE4
:104DB00000BF00BF0C37BD465DF8047B704780B470
:104DC00083B000AF7860002318460C37BD465DF80D
:104DD000047B704780B582B000AF78607B68DB6889
:104DE00043F040027B68DA6000217868FFF724FB1B
:104DF0007868FFF7C7FF7B68DB6823F4705343F4E0
:104E0000A0527B68DA6000217868FFF731FB7B688D
:104E1000D3F8003843F003027B68C3F8002800BFD2
:104E20000837BD4680BD80B584B000AF78607B6830
:104E3000DB68FB60FB6823F04003FB607B6893F852
:104E4000483023F03F03DBB2802B10D1FB6843F0E6
:104E50001003FB60FB6823F08803FB60FB6823F40E
:104E60004013FB60FB6823F42023FB600FE0FB682A
:104E700023F01803FB607B6893F8513023F03F0365
:104E8000DBB2002B03D0FB6843F00803FB607B68B8
:104E9000FA68DA607B6893F84830C3F38113DBB2B9
:104EA00019467868FFF7C8FA7868FFF76BFFFB6868
:104EB00023F47053FB607B6893F8513023F03F0379
:104EC000DBB2002B02D04FF4A05301E04FF410539B
:104ED000FA681343FB607B68FA68DA607B6893F8D2
:104EE0004830C3F38113DBB219467868FFF7C0FA84
:104EF0007B68D3F80038BB60BB6823F00303BB605A
:104F00007B6893F8483023F03F03DBB2802B03D15A
:104F1000BB6843F48043BB607B68BA68C3F8002871
:104F200000BF1037BD4680BD80B485B000AF78604B
:104F30007B681B6C1B0C1B04FB60FB680E4A9342D6
:104F400012D0FB680D4A93420ED0FB680C4A934284
:104F50000AD00C4BBB60BB681B6803F00103002B3D
:104F600000D000BE002300E0012318461437BD46E0
:104F70005DF8047B704700BF0000544F00003155BE
:104F800000003255F0ED00E080B588B000AF034678
:104F9000FB71FB79464A1B0113441B68FB61F869EE
:104FA000FFF7C2FF034683F00103DBB2002B7BD186
:104FB000FB79184600F000F9F869FFF700FF034697
:104FC000002B03D0F869FFF72EFF02E0F869FFF726
:104FD00001FFFB69D3F8003E23F00F02FB69C3F821
:104FE000002EFB69DB6843F00702FB69DA60FB69AE
:104FF000DB6823F0C04343F08042FB69DA60FB6961
:105000001B6823F0D00343F0C002FB691A60FB6900
:10501000D3F8003843F00402FB69C3F80028FB69A9
:105020003B611023FB73FB7B9B0143F020023B6938
:105030001A6100BF3B691B6903F02003002BF9D103
:1050400000BFFB697B617B6910221A6100BF7B692D
:105050001B6903F01003002BF9D100BFFB695B69EA
:10506000BB61FB695A69BB691A43FB695A61FB69F9
:105070005B68BB61FB695A68BB691A43FB695A608C
:10508000FB690C4A9A61FB699B6843F08002FB69EB
:105090009A60FB699B6843F00102FB699A60FB79A7
:1050A000184600F06DF800E000BF2037BD4680BD17
:1050B000486000081438008080B584B000AF034613
:1050C000FB71FB79FB73FB7B064A1B011344043322
:1050D0001B685BB21846FFF76DF900BF00BF1037C1
:1050E000BD4680BD4860000880B584B000AF03466F
:1050F000FB71FB79FB73FB7B064A1B0113440433F2
:105100001B685BB21846FFF773F900BF00BF10378A
:10511000BD4680BD4860000880B584B000AF03463E
:105120000A46FB711346BB71FB79144A1B011344F9
:105130001B68FB60FB68D3F8003823F4FE62BB7980
:105140001B011A43FB68C3F800280023FB720123EC
:10515000BB72BB7A002B02D06FF07F0300E000230C
:1051600097F90B2013435BB2D9B2F87900230022E0
:1051700000F02EF900BF1037BD4680BD4860000822
:1051800080B485B000AF0346FB71FB79094A1B016F
:1051900013441B68FB60FB68D3F8043823F0020259
:1051A000FB68C3F8042800BF1437BD465DF8047BD4
:1051B000704700BF4860000880B485B000AF034668
:1051C000FB71FB79094A1B0113441B68FB60FB68F8
:1051D000D3F8043843F00202FB68C3F8042800BF88
:1051E0001437BD465DF8047B704700BF4860000877
:1051F00080B485B000AF03460A46FB711346BB710D
:10520000FB79104A1B0113441B68FB600E4ABB79F3
:105210001370BB79002B09D0FB6808225A61FB6828
:105220009B6943F00802FB689A6105E0FB689B6993
:1052300023F00802FB689A6100BF1437BD465DF891
:10524000047B7047486000081207002080B584B0D6
:1052500000AF03463960FB713B6899783B68BB60DF
:10526000BB689B889BB2C3F30A039AB2FB791846CA
:10527000FFF78EF9034683F00103DBB2002B0AD05F
:105280000A4BFB60FB681B6803F00103002B00D096
:1052900000BE002305E0FB7939681846FFF72EFAB7
:1052A000012318461037BD4680BD00BFF0ED00E079
:1052B00080B588B000AF0346FB71FB79414A1B0102
:1052C00013441B68BB61FB793E4A1B01134408333E
:1052D0001B78FB75BB694FF00112C3F81C28012332
:1052E000FB773CE0FB7FBA6958335B0113441B68D2
:1052F000002B0DDAFB7FBA6958335B0113441A683F
:10530000FB7F42F09042B96958335B010B441A604D
:10531000FB7F2D4A5B0113440A3300221A80FB7F76
:10532000BA6948335B0113441B68002B0DDAFB7F1D
:10533000BA6948335B0113441A68FB7F42F090421C
:10534000B96948335B010B441A60FB7F1E4A5B015D
:1053500013441A3300221A80FB7F0133FB77FA7F54
:10536000FB7D9A42BED3FB7D19464020FFF7F6F83D
:1053700003461A46BB695A62144B10221A80BB6955
:10538000FB601023FB72FB7A9B0143F02002FB6859
:105390001A6100BFFB681B6903F02003002BF9D1E1
:1053A00000BFBB693B613B6910221A6100BF3B69CA
:1053B0001B6903F01003002BF9D100BF00BF203799
:1053C000BD4680BD486000088C0600201007002004
:1053D00090B589B002AF3A601A460346FB710B469E
:1053E000BB711346BB80BB793B733B7B03F07F03F0
:1053F000DBB27B75BB797B737B7BDB09DBB23B75F7
:105400007A7D3B7D520013441B01234A13443B61C8
:105410003B693A681A603B6900225A603B69BA8866
:105420001A817B7D002B10D13B7D1C49BA8821F865
:1054300013203B7D194A32F813303A7D797DF87993
:1054400000930123FFF7A6FB20E03B695B89BA8844
:10545000B2FBF3F3FB823B695A89BB88B3FBF2F1E1
:1054600001FB02F29B1AFB81FB89002B02D1BB8856
:10547000002B02D1FB8A0133FB82FC8A3A7D797DC5
:10548000F879BB8800932346FFF784FB0123184675
:105490001C37BD4690BD00BF8C0600200C070020C5
:1054A00080B582B000AF03460A46FB711346BB715C
:1054B000B979FB7901221846FFF7A0F900BF083738
:1054C000BD4680BD80B485B000AF03460A46FB717F
:1054D0001346BB71FB792A4A1B0113441B68FB600E
:1054E000BB793B723B7A03F07F03DBB2FB72BB7983
:1054F0007B727B7ADB09DBB2BB72BB7A012B1CD1DE
:10550000FB7AFA6848335B0113441A68FB7A22F489
:105510000012F96848335B010B441A60FB7AFA68A1
:1055200048335B0113441A68FB7A42F08052F968F1
:1055300048335B010B441A601BE0FB7AFA6858336E
:105540005B0113441A68FB7A22F40012F96858339D
:105550005B010B441A60FB7AFA6858335B01134411
:105560001A68FB7A42F08052F96858335B010B44A9
:105570001A6000BF1437BD465DF8047B704700BF5A
:105580004860000880B48DB000AF03463960FB71FD
:105590001346BB80FB79274A1B0113441B68BB627F
:1055A000BB6A03F580537B62BB889B08FB850BE0DD
:1055B0007B6A1B683A68BA617B61BB697A691A6069
:1055C00000BF3B6804333B60FB8D5A1EFA85002BFD
:1055D000EED1BB88DBB203F0030387F8233097F8E2
:1055E0002330002B20D07B6A1B68FB61FB693B6189
:1055F0003B69DAB23B681A7097F82330012B07D960
:105600003B680133FA69FA60FA68120AD2B21A707A
:1056100097F82330022B07D93B680233FA69BA6046
:10562000BA68120CD2B21A7000BF3437BD465DF8AA
:10563000047B70474860000880B489B000AF3A60CE
:105640001A460346FB710B46BB711346BB80FB79C0
:10565000224A1B0113441B687B61BB7901331B0386
:105660007A6913443B61BB889B08FB8308E03B6875
:10567000BB60BB681A683B691A603B6804333B60D7
:10568000FB8B5A1EFA83002BF1D1BB88DBB203F0EF
:105690000303FB73FB7B002B19D03B681B78BB61BA
:1056A000FB7B012B06D93B6801331B781B02BA69CF
:1056B0001343BB61FB7B022B06D93B6802331B788B
:1056C0001B04BA691343BB613B69BA691A6000BF26
:1056D0002437BD465DF8047B704700BF4860000872
:1056E00080B58CB000AF0346FB71FB795D4A1B01AE
:1056F00013441B68BB62BB6A03F580537B62BB6AC1
:105700001B6A3B623B6A5B0CDBB203F00F03FB7767
:105710003B6ADBB203F00F03BB773B6A1B099BB20A
:10572000C3F30A03BB83BB7F58335B01BA6A1344DC
:10573000BB61FB7F013B052B7ED801A252F823F011
:105740004D58000879570008F35700086B570008B8
:1057500039580008595700087B6A1B68424A136091
:105760007B6A1B68404A536077E0BB691B6943F062
:10577000C042BB691A6170E0BB7F5B013B4A1344C6
:105780003B613B695B68002B07D03B695B68BA8B68
:10579000796A1846FCF7ADFA0CE03B691968BA8BD8
:1057A000FB791846FFF7EEFE3B691A68BB8B1A447B
:1057B0003B691A603B695B89BA8B9A4248D2BB69E4
:1057C0001B69C3F312013B691A898BB2D31A9AB2CF
:1057D0003B691A81BB7F002B3AD13B691A89244B64
:1057E0001B88D31A9AB23B691A81214B00221A8076
:1057F0002EE0BB7F002B2DD1BB8B002B2AD1BB6AA7
:105800001B6C1C4A934225D9BB699B687B617A69F2
:1058100048F220031340002B1CD00123FB627B695C
:1058200003F02003002B03D0FB6A43F02003FB624C
:10583000BB69FA6A9A600DE00F4BFB60FB681B685E
:1058400003F00103002B07D000BE05E000BF04E019
:1058500000BF02E000BF00E000BF00BF3037BD4620
:1058600080BD00BF48600008840600208C06002030
:105870000C0700200930544FF0ED00E080B596B0E1
:1058800002AF0346FB71FB79604A1B0113441B689E
:105890007B64FB795D4A1B01134408331B7887F84E
:1058A0004330002387F84F30A4E07B6CD3F81828EE
:1058B00097F84F30103322FA03F303F00103002B63
:1058C00000F0938097F84F3058335B017A6C1344A3
:1058D000FB63FB6B9B68BB63BB6B03F00803002B94
:1058E00034D00823BB64BB6B03F40043002B08D007
:1058F0007B6C1B6C464A934203D9BB6C43F4004358
:10590000BB64FB6BBA6C9A60FB7987F83330414B10
:10591000FB62012387F82B3007F1140300221A6081
:105920005A609A6097F833303B7506237B75FA6AA4
:1059300007F118031068516803C397F82B2007F18B
:10594000140311461846FDF75FFA00BFFB6B9B6816
:1059500003F00103002B48D0FB6B01229A6097F8FB
:105960004F305B012C4A13447B6397F84F30002B78
:105970000ED12A4B1B88002B0AD0284B1B8897F886
:105980004F10F879009301230022FFF703F92CE070
:105990007B6B1B891A46FB7987F82A3097F84F30C2
:1059A00087F829307A62002387F82330012387F8AB
:1059B000223007F1080300221A605A609A6097F8B3
:1059C0002A303B7207237B7297F829303B737B6A3E
:1059D0003B6197F823307B7397F8222007F1080387
:1059E00011461846FDF710FA00BF97F84F30013303
:1059F00087F84F3097F84F2097F843309A42FFF4DA
:105A000054AF00BF00BF5037BD4680BD486000089E
:105A10000930544F840600208C0600200C0700201B
:105A200080B594B002AF0346FB71FB79884A1B0135
:105A300013441B683B64FB79854A1B0113440833FC
:105A40001B7887F83F303B6C03F51063BB63002382
:105A500087F84730F0E03B6CD3F8182897F84730C8
:105A600022FA03F303F00103002B00F0E08097F823
:105A700047305B011033774A13447B6397F8473014
:105A80005B01BA6B13449B6803F00103002B46D003
:105A900097F847305B01BA6B134401229A6097F87C
:105AA0004730002B0ED16C4B5B88002B0AD06A4B21
:105AB0005B8897F84710F879009301230122FFF7DC
:105AC00069F82CE097F8473063F07F03D9B27B6B1D
:105AD0001B891A46FB7987F827300B4687F8263052
:105AE0003A620023FB770123BB7707F10C03002206
:105AF0001A605A609A6097F827303B7307237B73CC
